{
  "_format": "hh-sol-artifact-1",
  "contractName": "Webpai",
  "sourceName": "contracts/Webpai.sol",
  "abi": [
    {
      "anonymous": false,
      "inputs": [
        {
          "components": [
            {
              "internalType": "uint32",
              "name": "id",
              "type": "uint32"
            },
            {
              "internalType": "string",
              "name": "topic",
              "type": "string"
            },
            {
              "internalType": "address",
              "name": "creator_address",
              "type": "address"
            },
            {
              "internalType": "string",
              "name": "ipfsid",
              "type": "string"
            },
            {
              "internalType": "string",
              "name": "message",
              "type": "string"
            },
            {
              "internalType": "uint256",
              "name": "created_at",
              "type": "uint256"
            }
          ],
          "indexed": false,
          "internalType": "struct Webpai.Message",
          "name": "message",
          "type": "tuple"
        }
      ],
      "name": "Submitted",
      "type": "event"
    },
    {
      "inputs": [
        {
          "internalType": "string",
          "name": "topic",
          "type": "string"
        },
        {
          "internalType": "string",
          "name": "message",
          "type": "string"
        },
        {
          "internalType": "string",
          "name": "ipfsid",
          "type": "string"
        }
      ],
      "name": "addNewMessage",
      "outputs": [],
      "stateMutability": "nonpayable",
      "type": "function"
    },
    {
      "inputs": [
        {
          "internalType": "string",
          "name": "topic",
          "type": "string"
        }
      ],
      "name": "getChatHistory",
      "outputs": [
        {
          "components": [
            {
              "internalType": "uint32",
              "name": "id",
              "type": "uint32"
            },
            {
              "internalType": "string",
              "name": "topic",
              "type": "string"
            },
            {
              "internalType": "address",
              "name": "creator_address",
              "type": "address"
            },
            {
              "internalType": "string",
              "name": "ipfsid",
              "type": "string"
            },
            {
              "internalType": "string",
              "name": "message",
              "type": "string"
            },
            {
              "internalType": "uint256",
              "name": "created_at",
              "type": "uint256"
            }
          ],
          "internalType": "struct Webpai.Message[]",
          "name": "",
          "type": "tuple[]"
        }
      ],
      "stateMutability": "view",
      "type": "function"
    }
  ],
  "bytecode": "0x608060405234801561001057600080fd5b50610d31806100206000396000f3fe608060405234801561001057600080fd5b50600436106100365760003560e01c80632deb10c11461003b57806384c5f0d91461006b575b600080fd5b6100556004803603810190610050919061073a565b610087565b6040516100629190610aa1565b60405180910390f35b6100856004803603810190610080919061077f565b610343565b005b60606001838360405161009b929190610a88565b9081526020016040518091039020805480602002602001604051908101604052809291908181526020016000905b8282101561033757838290600052602060002090600602016040518060c00160405290816000820160009054906101000a900463ffffffff1663ffffffff1663ffffffff16815260200160018201805461012290610c04565b80601f016020809104026020016040519081016040528092919081815260200182805461014e90610c04565b801561019b5780601f106101705761010080835404028352916020019161019b565b820191906000526020600020905b81548152906001019060200180831161017e57829003601f168201915b505050505081526020016002820160009054906101000a900473ffffffffffffffffffffffffffffffffffffffff1673ffffffffffffffffffffffffffffffffffffffff1673ffffffffffffffffffffffffffffffffffffffff16815260200160038201805461020a90610c04565b80601f016020809104026020016040519081016040528092919081815260200182805461023690610c04565b80156102835780601f1061025857610100808354040283529160200191610283565b820191906000526020600020905b81548152906001019060200180831161026657829003601f168201915b5050505050815260200160048201805461029c90610c04565b80601f01602080910402602001604051908101604052809291908181526020018280546102c890610c04565b80156103155780601f106102ea57610100808354040283529160200191610315565b820191906000526020600020905b8154815290600101906020018083116102f857829003601f168201915b50505050508152602001600582015481525050815260200190600101906100c9565b50505050905092915050565b60008484905011610389576040517f08c379a000000000000000000000000000000000000000000000000000000000815260040161038090610ac3565b60405180910390fd5b60006040518060c0016040528060008054906101000a900463ffffffff1663ffffffff16815260200188888080601f016020809104026020016040519081016040528093929190818152602001838380828437600081840152601f19601f8201169050808301925050505050505081526020013373ffffffffffffffffffffffffffffffffffffffff16815260200184848080601f016020809104026020016040519081016040528093929190818152602001838380828437600081840152601f19601f82011690508083019250505050505050815260200186868080601f016020809104026020016040519081016040528093929190818152602001838380828437600081840152601f19601f820116905080830192505050505050508152602001428152509050600187876040516104c4929190610a88565b908152602001604051809103902081908060018154018082558091505060019003906000526020600020906006020160009091909190915060008201518160000160006101000a81548163ffffffff021916908363ffffffff160217905550602082015181600101908051906020019061053f92919061064d565b5060408201518160020160006101000a81548173ffffffffffffffffffffffffffffffffffffffff021916908373ffffffffffffffffffffffffffffffffffffffff16021790555060608201518160030190805190602001906105a392919061064d565b5060808201518160040190805190602001906105c092919061064d565b5060a08201518160050155505060008081819054906101000a900463ffffffff16809291906105ee90610c36565b91906101000a81548163ffffffff021916908363ffffffff160217905550507fcfe3f33cd79da539d8b67cb45f5f90db1921d220bb6fd31f84a5bd3c83f519f68160405161063c9190610ae3565b60405180910390a150505050505050565b82805461065990610c04565b90600052602060002090601f01602090048101928261067b57600085556106c2565b82601f1061069457805160ff19168380011785556106c2565b828001600101855582156106c2579182015b828111156106c15782518255916020019190600101906106a6565b5b5090506106cf91906106d3565b5090565b5b808211156106ec5760008160009055506001016106d4565b5090565b60008083601f84011261070257600080fd5b8235905067ffffffffffffffff81111561071b57600080fd5b60208301915083600182028301111561073357600080fd5b9250929050565b6000806020838503121561074d57600080fd5b600083013567ffffffffffffffff81111561076757600080fd5b610773858286016106f0565b92509250509250929050565b6000806000806000806060878903121561079857600080fd5b600087013567ffffffffffffffff8111156107b257600080fd5b6107be89828a016106f0565b9650965050602087013567ffffffffffffffff8111156107dd57600080fd5b6107e989828a016106f0565b9450945050604087013567ffffffffffffffff81111561080857600080fd5b61081489828a016106f0565b92509250509295509295509295565b600061082f838361093c565b905092915050565b61084081610b76565b82525050565b600061085182610b15565b61085b8185610b38565b93508360208202850161086d85610b05565b8060005b858110156108a9578484038952815161088a8582610823565b945061089583610b2b565b925060208a01995050600181019050610871565b50829750879550505050505092915050565b60006108c78385610b6b565b93506108d4838584610bc2565b82840190509392505050565b60006108eb82610b20565b6108f58185610b49565b9350610905818560208601610bd1565b61090e81610cc1565b840191505092915050565b6000610926601a83610b5a565b915061093182610cd2565b602082019050919050565b600060c0830160008301516109546000860182610a79565b506020830151848203602086015261096c82826108e0565b91505060408301516109816040860182610837565b506060830151848203606086015261099982826108e0565b915050608083015184820360808601526109b382826108e0565b91505060a08301516109c860a0860182610a6a565b508091505092915050565b600060c0830160008301516109eb6000860182610a79565b5060208301518482036020860152610a0382826108e0565b9150506040830151610a186040860182610837565b5060608301518482036060860152610a3082826108e0565b91505060808301518482036080860152610a4a82826108e0565b91505060a0830151610a5f60a0860182610a6a565b508091505092915050565b610a7381610ba8565b82525050565b610a8281610bb2565b82525050565b6000610a958284866108bb565b91508190509392505050565b60006020820190508181036000830152610abb8184610846565b905092915050565b60006020820190508181036000830152610adc81610919565b9050919050565b60006020820190508181036000830152610afd81846109d3565b905092915050565b6000819050602082019050919050565b600081519050919050565b600081519050919050565b6000602082019050919050565b600082825260208201905092915050565b600082825260208201905092915050565b600082825260208201905092915050565b600081905092915050565b6000610b8182610b88565b9050919050565b600073ffffffffffffffffffffffffffffffffffffffff82169050919050565b6000819050919050565b600063ffffffff82169050919050565b82818337600083830152505050565b60005b83811015610bef578082015181840152602081019050610bd4565b83811115610bfe576000848401525b50505050565b60006002820490506001821680610c1c57607f821691505b60208210811415610c3057610c2f610c92565b5b50919050565b6000610c4182610bb2565b915063ffffffff821415610c5857610c57610c63565b5b600182019050919050565b7f4e487b7100000000000000000000000000000000000000000000000000000000600052601160045260246000fd5b7f4e487b7100000000000000000000000000000000000000000000000000000000600052602260045260246000fd5b6000601f19601f8301169050919050565b7f4572726f723a20656d707479206d617373616765206669656c6400000000000060008201525056fea26469706673582212203fb4076dc399304c4a14bae971e3a1f9ba06ffdfbf1fd2ff713cdb8342a189cf64736f6c63430008040033",
  "linkReferences": {},
  "deployedLinkReferences": {}
}